{
  "_format": "hh-sol-artifact-1",
  "contractName": "NFTMarketplace",
  "sourceName": "contracts/NFTMarketplace.sol",
  "abi": [
    {
      "inputs": [],
      "stateMutability": "nonpayable",
      "type": "constructor"
    },
    {
      "anonymous": false,
      "inputs": [
        {
          "indexed": true,
          "internalType": "address",
          "name": "owner",
          "type": "address"
        },
        {
          "indexed": true,
          "internalType": "address",
          "name": "approved",
          "type": "address"
        },
        {
          "indexed": true,
          "internalType": "uint256",
          "name": "tokenId",
          "type": "uint256"
        }
      ],
      "name": "Approval",
      "type": "event"
    },
    {
      "anonymous": false,
      "inputs": [
        {
          "indexed": true,
          "internalType": "address",
          "name": "owner",
          "type": "address"
        },
        {
          "indexed": true,
          "internalType": "address",
          "name": "operator",
          "type": "address"
        },
        {
          "indexed": false,
          "internalType": "bool",
          "name": "approved",
          "type": "bool"
        }
      ],
      "name": "ApprovalForAll",
      "type": "event"
    },
    {
      "anonymous": false,
      "inputs": [
        {
          "indexed": false,
          "internalType": "uint256",
          "name": "_fromTokenId",
          "type": "uint256"
        },
        {
          "indexed": false,
          "internalType": "uint256",
          "name": "_toTokenId",
          "type": "uint256"
        }
      ],
      "name": "BatchMetadataUpdate",
      "type": "event"
    },
    {
      "anonymous": false,
      "inputs": [
        {
          "indexed": true,
          "internalType": "uint256",
          "name": "tokenId",
          "type": "uint256"
        },
        {
          "indexed": false,
          "internalType": "address",
          "name": "seller",
          "type": "address"
        },
        {
          "indexed": false,
          "internalType": "address",
          "name": "owner",
          "type": "address"
        },
        {
          "indexed": false,
          "internalType": "uint256",
          "name": "price",
          "type": "uint256"
        },
        {
          "indexed": false,
          "internalType": "bool",
          "name": "sold",
          "type": "bool"
        }
      ],
      "name": "MarketItemCreated",
      "type": "event"
    },
    {
      "anonymous": false,
      "inputs": [
        {
          "indexed": true,
          "internalType": "uint256",
          "name": "tokenId",
          "type": "uint256"
        },
        {
          "indexed": false,
          "internalType": "address",
          "name": "seller",
          "type": "address"
        },
        {
          "indexed": false,
          "internalType": "uint256",
          "name": "price",
          "type": "uint256"
        }
      ],
      "name": "MarketItemRelisted",
      "type": "event"
    },
    {
      "anonymous": false,
      "inputs": [
        {
          "indexed": true,
          "internalType": "uint256",
          "name": "tokenId",
          "type": "uint256"
        },
        {
          "indexed": false,
          "internalType": "address",
          "name": "buyer",
          "type": "address"
        },
        {
          "indexed": false,
          "internalType": "uint256",
          "name": "price",
          "type": "uint256"
        }
      ],
      "name": "MarketItemSold",
      "type": "event"
    },
    {
      "anonymous": false,
      "inputs": [
        {
          "indexed": false,
          "internalType": "uint256",
          "name": "_tokenId",
          "type": "uint256"
        }
      ],
      "name": "MetadataUpdate",
      "type": "event"
    },
    {
      "anonymous": false,
      "inputs": [
        {
          "indexed": true,
          "internalType": "address",
          "name": "previousOwner",
          "type": "address"
        },
        {
          "indexed": true,
          "internalType": "address",
          "name": "newOwner",
          "type": "address"
        }
      ],
      "name": "OwnershipTransferred",
      "type": "event"
    },
    {
      "anonymous": false,
      "inputs": [
        {
          "indexed": true,
          "internalType": "address",
          "name": "from",
          "type": "address"
        },
        {
          "indexed": true,
          "internalType": "address",
          "name": "to",
          "type": "address"
        },
        {
          "indexed": true,
          "internalType": "uint256",
          "name": "tokenId",
          "type": "uint256"
        }
      ],
      "name": "Transfer",
      "type": "event"
    },
    {
      "inputs": [
        {
          "internalType": "address",
          "name": "to",
          "type": "address"
        },
        {
          "internalType": "uint256",
          "name": "tokenId",
          "type": "uint256"
        }
      ],
      "name": "approve",
      "outputs": [],
      "stateMutability": "nonpayable",
      "type": "function"
    },
    {
      "inputs": [
        {
          "internalType": "address",
          "name": "owner",
          "type": "address"
        }
      ],
      "name": "balanceOf",
      "outputs": [
        {
          "internalType": "uint256",
          "name": "",
          "type": "uint256"
        }
      ],
      "stateMutability": "view",
      "type": "function"
    },
    {
      "inputs": [
        {
          "internalType": "uint256",
          "name": "tokenId",
          "type": "uint256"
        }
      ],
      "name": "createMarketSale",
      "outputs": [],
      "stateMutability": "payable",
      "type": "function"
    },
    {
      "inputs": [
        {
          "internalType": "string",
          "name": "tokenURI",
          "type": "string"
        },
        {
          "internalType": "uint256",
          "name": "price",
          "type": "uint256"
        }
      ],
      "name": "createToken",
      "outputs": [
        {
          "internalType": "uint256",
          "name": "",
          "type": "uint256"
        }
      ],
      "stateMutability": "payable",
      "type": "function"
    },
    {
      "inputs": [],
      "name": "fetchItemsListed",
      "outputs": [
        {
          "components": [
            {
              "internalType": "uint256",
              "name": "tokenId",
              "type": "uint256"
            },
            {
              "internalType": "address payable",
              "name": "seller",
              "type": "address"
            },
            {
              "internalType": "address payable",
              "name": "owner",
              "type": "address"
            },
            {
              "internalType": "uint256",
              "name": "price",
              "type": "uint256"
            },
            {
              "internalType": "bool",
              "name": "sold",
              "type": "bool"
            }
          ],
          "internalType": "struct NFTMarketplace.MarketItem[]",
          "name": "",
          "type": "tuple[]"
        }
      ],
      "stateMutability": "view",
      "type": "function"
    },
    {
      "inputs": [],
      "name": "fetchMarketItem",
      "outputs": [
        {
          "components": [
            {
              "internalType": "uint256",
              "name": "tokenId",
              "type": "uint256"
            },
            {
              "internalType": "address payable",
              "name": "seller",
              "type": "address"
            },
            {
              "internalType": "address payable",
              "name": "owner",
              "type": "address"
            },
            {
              "internalType": "uint256",
              "name": "price",
              "type": "uint256"
            },
            {
              "internalType": "bool",
              "name": "sold",
              "type": "bool"
            }
          ],
          "internalType": "struct NFTMarketplace.MarketItem[]",
          "name": "",
          "type": "tuple[]"
        }
      ],
      "stateMutability": "view",
      "type": "function"
    },
    {
      "inputs": [],
      "name": "fetchMyNFT",
      "outputs": [
        {
          "components": [
            {
              "internalType": "uint256",
              "name": "tokenId",
              "type": "uint256"
            },
            {
              "internalType": "address payable",
              "name": "seller",
              "type": "address"
            },
            {
              "internalType": "address payable",
              "name": "owner",
              "type": "address"
            },
            {
              "internalType": "uint256",
              "name": "price",
              "type": "uint256"
            },
            {
              "internalType": "bool",
              "name": "sold",
              "type": "bool"
            }
          ],
          "internalType": "struct NFTMarketplace.MarketItem[]",
          "name": "",
          "type": "tuple[]"
        }
      ],
      "stateMutability": "view",
      "type": "function"
    },
    {
      "inputs": [
        {
          "internalType": "uint256",
          "name": "tokenId",
          "type": "uint256"
        }
      ],
      "name": "getApproved",
      "outputs": [
        {
          "internalType": "address",
          "name": "",
          "type": "address"
        }
      ],
      "stateMutability": "view",
      "type": "function"
    },
    {
      "inputs": [],
      "name": "getListingPrice",
      "outputs": [
        {
          "internalType": "uint256",
          "name": "",
          "type": "uint256"
        }
      ],
      "stateMutability": "view",
      "type": "function"
    },
    {
      "inputs": [
        {
          "internalType": "address",
          "name": "owner",
          "type": "address"
        },
        {
          "internalType": "address",
          "name": "operator",
          "type": "address"
        }
      ],
      "name": "isApprovedForAll",
      "outputs": [
        {
          "internalType": "bool",
          "name": "",
          "type": "bool"
        }
      ],
      "stateMutability": "view",
      "type": "function"
    },
    {
      "inputs": [],
      "name": "name",
      "outputs": [
        {
          "internalType": "string",
          "name": "",
          "type": "string"
        }
      ],
      "stateMutability": "view",
      "type": "function"
    },
    {
      "inputs": [],
      "name": "owner",
      "outputs": [
        {
          "internalType": "address",
          "name": "",
          "type": "address"
        }
      ],
      "stateMutability": "view",
      "type": "function"
    },
    {
      "inputs": [
        {
          "internalType": "uint256",
          "name": "tokenId",
          "type": "uint256"
        }
      ],
      "name": "ownerOf",
      "outputs": [
        {
          "internalType": "address",
          "name": "",
          "type": "address"
        }
      ],
      "stateMutability": "view",
      "type": "function"
    },
    {
      "inputs": [
        {
          "internalType": "uint256",
          "name": "tokenId",
          "type": "uint256"
        },
        {
          "internalType": "uint256",
          "name": "price",
          "type": "uint256"
        }
      ],
      "name": "reSellToken",
      "outputs": [],
      "stateMutability": "payable",
      "type": "function"
    },
    {
      "inputs": [],
      "name": "renounceOwnership",
      "outputs": [],
      "stateMutability": "nonpayable",
      "type": "function"
    },
    {
      "inputs": [
        {
          "internalType": "address",
          "name": "from",
          "type": "address"
        },
        {
          "internalType": "address",
          "name": "to",
          "type": "address"
        },
        {
          "internalType": "uint256",
          "name": "tokenId",
          "type": "uint256"
        }
      ],
      "name": "safeTransferFrom",
      "outputs": [],
      "stateMutability": "nonpayable",
      "type": "function"
    },
    {
      "inputs": [
        {
          "internalType": "address",
          "name": "from",
          "type": "address"
        },
        {
          "internalType": "address",
          "name": "to",
          "type": "address"
        },
        {
          "internalType": "uint256",
          "name": "tokenId",
          "type": "uint256"
        },
        {
          "internalType": "bytes",
          "name": "data",
          "type": "bytes"
        }
      ],
      "name": "safeTransferFrom",
      "outputs": [],
      "stateMutability": "nonpayable",
      "type": "function"
    },
    {
      "inputs": [
        {
          "internalType": "address",
          "name": "operator",
          "type": "address"
        },
        {
          "internalType": "bool",
          "name": "approved",
          "type": "bool"
        }
      ],
      "name": "setApprovalForAll",
      "outputs": [],
      "stateMutability": "nonpayable",
      "type": "function"
    },
    {
      "inputs": [
        {
          "internalType": "bytes4",
          "name": "interfaceId",
          "type": "bytes4"
        }
      ],
      "name": "supportsInterface",
      "outputs": [
        {
          "internalType": "bool",
          "name": "",
          "type": "bool"
        }
      ],
      "stateMutability": "view",
      "type": "function"
    },
    {
      "inputs": [],
      "name": "symbol",
      "outputs": [
        {
          "internalType": "string",
          "name": "",
          "type": "string"
        }
      ],
      "stateMutability": "view",
      "type": "function"
    },
    {
      "inputs": [
        {
          "internalType": "uint256",
          "name": "tokenId",
          "type": "uint256"
        }
      ],
      "name": "tokenURI",
      "outputs": [
        {
          "internalType": "string",
          "name": "",
          "type": "string"
        }
      ],
      "stateMutability": "view",
      "type": "function"
    },
    {
      "inputs": [
        {
          "internalType": "address",
          "name": "from",
          "type": "address"
        },
        {
          "internalType": "address",
          "name": "to",
          "type": "address"
        },
        {
          "internalType": "uint256",
          "name": "tokenId",
          "type": "uint256"
        }
      ],
      "name": "transferFrom",
      "outputs": [],
      "stateMutability": "nonpayable",
      "type": "function"
    },
    {
      "inputs": [
        {
          "internalType": "address",
          "name": "newOwner",
          "type": "address"
        }
      ],
      "name": "transferOwnership",
      "outputs": [],
      "stateMutability": "nonpayable",
      "type": "function"
    },
    {
      "inputs": [
        {
          "internalType": "uint256",
          "name": "_listingPrice",
          "type": "uint256"
        }
      ],
      "name": "updateListingPrice",
      "outputs": [],
      "stateMutability": "nonpayable",
      "type": "function"
    }
  ],
  "bytecode": "0x60806040526605543df729c000600a553480156200001c57600080fd5b506040518060400160405280601381526020017f4e4654204d657461766572736520546f6b656e000000000000000000000000008152506040518060400160405280600581526020017f4d594e465400000000000000000000000000000000000000000000000000000081525081600090816200009a91906200041d565b508060019081620000ac91906200041d565b505050620000cf620000c3620000d560201b60201c565b620000dd60201b60201c565b62000504565b600033905090565b6000600760009054906101000a900473ffffffffffffffffffffffffffffffffffffffff16905081600760006101000a81548173ffffffffffffffffffffffffffffffffffffffff021916908373ffffffffffffffffffffffffffffffffffffffff1602179055508173ffffffffffffffffffffffffffffffffffffffff168173ffffffffffffffffffffffffffffffffffffffff167f8be0079c531659141344cd1fd0a4f28419497f9722a3daafe3b4186f6b6457e060405160405180910390a35050565b600081519050919050565b7f4e487b7100000000000000000000000000000000000000000000000000000000600052604160045260246000fd5b7f4e487b7100000000000000000000000000000000000000000000000000000000600052602260045260246000fd5b600060028204905060018216806200022557607f821691505b6020821081036200023b576200023a620001dd565b5b50919050565b60008190508160005260206000209050919050565b60006020601f8301049050919050565b600082821b905092915050565b600060088302620002a57fffffffffffffffffffffffffffffffffffffffffffffffffffffffffffffffff8262000266565b620002b1868362000266565b95508019841693508086168417925050509392505050565b6000819050919050565b6000819050919050565b6000620002fe620002f8620002f284620002c9565b620002d3565b620002c9565b9050919050565b6000819050919050565b6200031a83620002dd565b62000332620003298262000305565b84845462000273565b825550505050565b600090565b620003496200033a565b620003568184846200030f565b505050565b5b818110156200037e57620003726000826200033f565b6001810190506200035c565b5050565b601f821115620003cd57620003978162000241565b620003a28462000256565b81016020851015620003b2578190505b620003ca620003c18562000256565b8301826200035b565b50505b505050565b600082821c905092915050565b6000620003f260001984600802620003d2565b1980831691505092915050565b60006200040d8383620003df565b9150826002028217905092915050565b6200042882620001a3565b67ffffffffffffffff811115620004445762000443620001ae565b5b6200045082546200020c565b6200045d82828562000382565b600060209050601f83116001811462000495576000841562000480578287015190505b6200048c8582620003ff565b865550620004fc565b601f198416620004a58662000241565b60005b82811015620004cf57848901518255600182019150602085019450602081019050620004a8565b86831015620004ef5784890151620004eb601f891682620003df565b8355505b6001600288020188555050505b505050505050565b6146d980620005146000396000f3fe60806040526004361061014b5760003560e01c806385535b25116100b6578063b88d4fde1161006f578063b88d4fde14610476578063be9af5361461049f578063c18763f7146104bb578063c87b56dd146104e6578063e985e9c514610523578063f2fde38b146105605761014b565b806385535b25146103875780638da5cb5b146103a35780638fafd021146103ce57806395d89b41146103f9578063a22cb46514610424578063ae677aa31461044d5761014b565b806342842e0e1161010857806342842e0e1461027257806345f8fa801461029b5780636352211e146102c657806370a0823114610303578063715018a61461034057806372b3b620146103575761014b565b806301ffc9a71461015057806306fdde031461018d578063081812fc146101b8578063095ea7b3146101f557806312e855851461021e57806323b872dd14610249575b600080fd5b34801561015c57600080fd5b5061017760048036038101906101729190612e9c565b610589565b6040516101849190612ee4565b60405180910390f35b34801561019957600080fd5b506101a26105ea565b6040516101af9190612f8f565b60405180910390f35b3480156101c457600080fd5b506101df60048036038101906101da9190612fe7565b61067c565b6040516101ec9190613055565b60405180910390f35b34801561020157600080fd5b5061021c6004803603810190610217919061309c565b6106c2565b005b34801561022a57600080fd5b506102336107d9565b60405161024091906130eb565b60405180910390f35b34801561025557600080fd5b50610270600480360381019061026b9190613106565b6107e3565b005b34801561027e57600080fd5b5061029960048036038101906102949190613106565b610843565b005b3480156102a757600080fd5b506102b0610863565b6040516102bd91906132af565b60405180910390f35b3480156102d257600080fd5b506102ed60048036038101906102e89190612fe7565b610b4f565b6040516102fa9190613055565b60405180910390f35b34801561030f57600080fd5b5061032a600480360381019061032591906132d1565b610bd5565b60405161033791906130eb565b60405180910390f35b34801561034c57600080fd5b50610355610c8c565b005b610371600480360381019061036c9190613433565b610ca0565b60405161037e91906130eb565b60405180910390f35b6103a1600480360381019061039c919061348f565b610d26565b005b3480156103af57600080fd5b506103b8610fa5565b6040516103c59190613055565b60405180910390f35b3480156103da57600080fd5b506103e3610fcf565b6040516103f091906132af565b60405180910390f35b34801561040557600080fd5b5061040e611237565b60405161041b9190612f8f565b60405180910390f35b34801561043057600080fd5b5061044b600480360381019061044691906134fb565b6112c9565b005b34801561045957600080fd5b50610474600480360381019061046f9190612fe7565b6112df565b005b34801561048257600080fd5b5061049d600480360381019061049891906135dc565b6112f1565b005b6104b960048036038101906104b49190612fe7565b611353565b005b3480156104c757600080fd5b506104d06115a8565b6040516104dd91906132af565b60405180910390f35b3480156104f257600080fd5b5061050d60048036038101906105089190612fe7565b611894565b60405161051a9190612f8f565b60405180910390f35b34801561052f57600080fd5b5061054a6004803603810190610545919061365f565b6119a6565b6040516105579190612ee4565b60405180910390f35b34801561056c57600080fd5b50610587600480360381019061058291906132d1565b611a3a565b005b6000634906490660e01b7bffffffffffffffffffffffffffffffffffffffffffffffffffffffff1916827bffffffffffffffffffffffffffffffffffffffffffffffffffffffff191614806105e357506105e282611abd565b5b9050919050565b6060600080546105f9906136ce565b80601f0160208091040260200160405190810160405280929190818152602001828054610625906136ce565b80156106725780601f1061064757610100808354040283529160200191610672565b820191906000526020600020905b81548152906001019060200180831161065557829003601f168201915b5050505050905090565b600061068782611b9f565b6004600083815260200190815260200160002060009054906101000a900473ffffffffffffffffffffffffffffffffffffffff169050919050565b60006106cd82610b4f565b90508073ffffffffffffffffffffffffffffffffffffffff168373ffffffffffffffffffffffffffffffffffffffff160361073d576040517f08c379a000000000000000000000000000000000000000000000000000000000815260040161073490613771565b60405180910390fd5b8073ffffffffffffffffffffffffffffffffffffffff1661075c611bea565b73ffffffffffffffffffffffffffffffffffffffff16148061078b575061078a81610785611bea565b6119a6565b5b6107ca576040517f08c379a00000000000000000000000000000000000000000000000000000000081526004016107c190613803565b60405180910390fd5b6107d48383611bf2565b505050565b6000600a54905090565b6107f46107ee611bea565b82611cab565b610833576040517f08c379a000000000000000000000000000000000000000000000000000000000815260040161082a90613895565b60405180910390fd5b61083e838383611d40565b505050565b61085e838383604051806020016040528060008152506112f1565b505050565b606060006108716008612039565b905060008060005b83811015610919573373ffffffffffffffffffffffffffffffffffffffff16600b60006001846108a991906138e4565b815260200190815260200160002060010160009054906101000a900473ffffffffffffffffffffffffffffffffffffffff1673ffffffffffffffffffffffffffffffffffffffff16036109065760018361090391906138e4565b92505b808061091190613918565b915050610879565b5060008267ffffffffffffffff81111561093657610935613308565b5b60405190808252806020026020018201604052801561096f57816020015b61095c612dd3565b8152602001906001900390816109545790505b50905060005b84811015610b44573373ffffffffffffffffffffffffffffffffffffffff16600b60006001846109a591906138e4565b815260200190815260200160002060010160009054906101000a900473ffffffffffffffffffffffffffffffffffffffff1673ffffffffffffffffffffffffffffffffffffffff1603610b31576000600182610a0191906138e4565b90506000600b60008381526020019081526020016000209050806040518060a0016040529081600082015481526020016001820160009054906101000a900473ffffffffffffffffffffffffffffffffffffffff1673ffffffffffffffffffffffffffffffffffffffff1673ffffffffffffffffffffffffffffffffffffffff1681526020016002820160009054906101000a900473ffffffffffffffffffffffffffffffffffffffff1673ffffffffffffffffffffffffffffffffffffffff1673ffffffffffffffffffffffffffffffffffffffff168152602001600382015481526020016004820160009054906101000a900460ff161515151581525050848681518110610b1457610b13613960565b5b6020026020010181905250600185610b2c91906138e4565b945050505b8080610b3c90613918565b915050610975565b508094505050505090565b600080610b5b83612047565b9050600073ffffffffffffffffffffffffffffffffffffffff168173ffffffffffffffffffffffffffffffffffffffff1603610bcc576040517f08c379a0000000000000000000000000000000000000000000000000000000008152600401610bc3906139db565b60405180910390fd5b80915050919050565b60008073ffffffffffffffffffffffffffffffffffffffff168273ffffffffffffffffffffffffffffffffffffffff1603610c45576040517f08c379a0000000000000000000000000000000000000000000000000000000008152600401610c3c90613a6d565b60405180910390fd5b600360008373ffffffffffffffffffffffffffffffffffffffff1673ffffffffffffffffffffffffffffffffffffffff168152602001908152602001600020549050919050565b610c94612084565b610c9e6000612102565b565b6000600a543414610ce6576040517f08c379a0000000000000000000000000000000000000000000000000000000008152600401610cdd90613aff565b60405180910390fd5b610cf060086121c8565b6000610cfc6008612039565b9050610d0833826121de565b610d1281856123fb565b610d1c818461249f565b8091505092915050565b3373ffffffffffffffffffffffffffffffffffffffff16600b600084815260200190815260200160002060020160009054906101000a900473ffffffffffffffffffffffffffffffffffffffff1673ffffffffffffffffffffffffffffffffffffffff1614610dca576040517f08c379a0000000000000000000000000000000000000000000000000000000008152600401610dc190613b91565b60405180910390fd5b600a543414610e0e576040517f08c379a0000000000000000000000000000000000000000000000000000000008152600401610e0590613aff565b60405180910390fd5b6000600b600084815260200190815260200160002060040160006101000a81548160ff02191690831515021790555080600b60008481526020019081526020016000206003018190555033600b600084815260200190815260200160002060010160006101000a81548173ffffffffffffffffffffffffffffffffffffffff021916908373ffffffffffffffffffffffffffffffffffffffff16021790555030600b600084815260200190815260200160002060020160006101000a81548173ffffffffffffffffffffffffffffffffffffffff021916908373ffffffffffffffffffffffffffffffffffffffff160217905550610f0c60096126ae565b610f17333084611d40565b610f1f610fa5565b73ffffffffffffffffffffffffffffffffffffffff166108fc600a549081150290604051600060405180830381858888f19350505050158015610f66573d6000803e3d6000fd5b50817fb2ba12d2566848b13548a3741edb565b69d3cbce7796959cd67431610207eb133383604051610f99929190613bb1565b60405180910390a25050565b6000600760009054906101000a900473ffffffffffffffffffffffffffffffffffffffff16905090565b60606000610fdd6008612039565b90506000610feb6009612039565b610ff56008612039565b610fff9190613bda565b90506000808267ffffffffffffffff81111561101e5761101d613308565b5b60405190808252806020026020018201604052801561105757816020015b611044612dd3565b81526020019060019003908161103c5790505b50905060005b8481101561122c573073ffffffffffffffffffffffffffffffffffffffff16600b600060018461108d91906138e4565b815260200190815260200160002060020160009054906101000a900473ffffffffffffffffffffffffffffffffffffffff1673ffffffffffffffffffffffffffffffffffffffff16036112195760006001826110e991906138e4565b90506000600b60008381526020019081526020016000209050806040518060a0016040529081600082015481526020016001820160009054906101000a900473ffffffffffffffffffffffffffffffffffffffff1673ffffffffffffffffffffffffffffffffffffffff1673ffffffffffffffffffffffffffffffffffffffff1681526020016002820160009054906101000a900473ffffffffffffffffffffffffffffffffffffffff1673ffffffffffffffffffffffffffffffffffffffff1673ffffffffffffffffffffffffffffffffffffffff168152602001600382015481526020016004820160009054906101000a900460ff1615151515815250508486815181106111fc576111fb613960565b5b602002602001018190525060018561121491906138e4565b945050505b808061122490613918565b91505061105d565b508094505050505090565b606060018054611246906136ce565b80601f0160208091040260200160405190810160405280929190818152602001828054611272906136ce565b80156112bf5780601f10611294576101008083540402835291602001916112bf565b820191906000526020600020905b8154815290600101906020018083116112a257829003601f168201915b5050505050905090565b6112db6112d4611bea565b838361270a565b5050565b6112e7612084565b80600a8190555050565b6113026112fc611bea565b83611cab565b611341576040517f08c379a000000000000000000000000000000000000000000000000000000000815260040161133890613895565b60405180910390fd5b61134d84848484612876565b50505050565b6000600b60008381526020019081526020016000206003015490508034146113b0576040517f08c379a00000000000000000000000000000000000000000000000000000000081526004016113a790613c80565b60405180910390fd5b3073ffffffffffffffffffffffffffffffffffffffff16600b600084815260200190815260200160002060020160009054906101000a900473ffffffffffffffffffffffffffffffffffffffff1673ffffffffffffffffffffffffffffffffffffffff1614611454576040517f08c379a000000000000000000000000000000000000000000000000000000000815260040161144b90613cec565b60405180910390fd5b33600b600084815260200190815260200160002060020160006101000a81548173ffffffffffffffffffffffffffffffffffffffff021916908373ffffffffffffffffffffffffffffffffffffffff1602179055506001600b600084815260200190815260200160002060040160006101000a81548160ff0219169083151502179055506114e260096121c8565b6114ed303384611d40565b600b600083815260200190815260200160002060010160009054906101000a900473ffffffffffffffffffffffffffffffffffffffff1673ffffffffffffffffffffffffffffffffffffffff166108fc349081150290604051600060405180830381858888f19350505050158015611569573d6000803e3d6000fd5b50817f79705a7faf0849ec33d9f436aa88d50146d23806527cf13010abf315cbfe7600338360405161159c929190613bb1565b60405180910390a25050565b606060006115b66008612039565b905060008060005b8381101561165e573373ffffffffffffffffffffffffffffffffffffffff16600b60006001846115ee91906138e4565b815260200190815260200160002060020160009054906101000a900473ffffffffffffffffffffffffffffffffffffffff1673ffffffffffffffffffffffffffffffffffffffff160361164b5760018361164891906138e4565b92505b808061165690613918565b9150506115be565b5060008267ffffffffffffffff81111561167b5761167a613308565b5b6040519080825280602002602001820160405280156116b457816020015b6116a1612dd3565b8152602001906001900390816116995790505b50905060005b84811015611889573373ffffffffffffffffffffffffffffffffffffffff16600b60006001846116ea91906138e4565b815260200190815260200160002060020160009054906101000a900473ffffffffffffffffffffffffffffffffffffffff1673ffffffffffffffffffffffffffffffffffffffff160361187657600060018261174691906138e4565b90506000600b60008381526020019081526020016000209050806040518060a0016040529081600082015481526020016001820160009054906101000a900473ffffffffffffffffffffffffffffffffffffffff1673ffffffffffffffffffffffffffffffffffffffff1673ffffffffffffffffffffffffffffffffffffffff1681526020016002820160009054906101000a900473ffffffffffffffffffffffffffffffffffffffff1673ffffffffffffffffffffffffffffffffffffffff1673ffffffffffffffffffffffffffffffffffffffff168152602001600382015481526020016004820160009054906101000a900460ff16151515158152505084868151811061185957611858613960565b5b602002602001018190525060018561187191906138e4565b945050505b808061188190613918565b9150506116ba565b508094505050505090565b606061189f82611b9f565b60006006600084815260200190815260200160002080546118bf906136ce565b80601f01602080910402602001604051908101604052809291908181526020018280546118eb906136ce565b80156119385780601f1061190d57610100808354040283529160200191611938565b820191906000526020600020905b81548152906001019060200180831161191b57829003601f168201915b5050505050905060006119496128d2565b9050600081510361195e5781925050506119a1565b60008251111561199357808260405160200161197b929190613d48565b604051602081830303815290604052925050506119a1565b61199c846128e9565b925050505b919050565b6000600560008473ffffffffffffffffffffffffffffffffffffffff1673ffffffffffffffffffffffffffffffffffffffff16815260200190815260200160002060008373ffffffffffffffffffffffffffffffffffffffff1673ffffffffffffffffffffffffffffffffffffffff16815260200190815260200160002060009054906101000a900460ff16905092915050565b611a42612084565b600073ffffffffffffffffffffffffffffffffffffffff168173ffffffffffffffffffffffffffffffffffffffff1603611ab1576040517f08c379a0000000000000000000000000000000000000000000000000000000008152600401611aa890613dde565b60405180910390fd5b611aba81612102565b50565b60007f80ac58cd000000000000000000000000000000000000000000000000000000007bffffffffffffffffffffffffffffffffffffffffffffffffffffffff1916827bffffffffffffffffffffffffffffffffffffffffffffffffffffffff19161480611b8857507f5b5e139f000000000000000000000000000000000000000000000000000000007bffffffffffffffffffffffffffffffffffffffffffffffffffffffff1916827bffffffffffffffffffffffffffffffffffffffffffffffffffffffff1916145b80611b985750611b9782612951565b5b9050919050565b611ba8816129bb565b611be7576040517f08c379a0000000000000000000000000000000000000000000000000000000008152600401611bde906139db565b60405180910390fd5b50565b600033905090565b816004600083815260200190815260200160002060006101000a81548173ffffffffffffffffffffffffffffffffffffffff021916908373ffffffffffffffffffffffffffffffffffffffff160217905550808273ffffffffffffffffffffffffffffffffffffffff16611c6583610b4f565b73ffffffffffffffffffffffffffffffffffffffff167f8c5be1e5ebec7d5bd14f71427d1e84f3dd0314c0f7b2291e5b200ac8c7c3b92560405160405180910390a45050565b600080611cb783610b4f565b90508073ffffffffffffffffffffffffffffffffffffffff168473ffffffffffffffffffffffffffffffffffffffff161480611cf95750611cf881856119a6565b5b80611d3757508373ffffffffffffffffffffffffffffffffffffffff16611d1f8461067c565b73ffffffffffffffffffffffffffffffffffffffff16145b91505092915050565b8273ffffffffffffffffffffffffffffffffffffffff16611d6082610b4f565b73ffffffffffffffffffffffffffffffffffffffff1614611db6576040517f08c379a0000000000000000000000000000000000000000000000000000000008152600401611dad90613e70565b60405180910390fd5b600073ffffffffffffffffffffffffffffffffffffffff168273ffffffffffffffffffffffffffffffffffffffff1603611e25576040517f08c379a0000000000000000000000000000000000000000000000000000000008152600401611e1c90613f02565b60405180910390fd5b611e3283838360016129fc565b8273ffffffffffffffffffffffffffffffffffffffff16611e5282610b4f565b73ffffffffffffffffffffffffffffffffffffffff1614611ea8576040517f08c379a0000000000000000000000000000000000000000000000000000000008152600401611e9f90613e70565b60405180910390fd5b6004600082815260200190815260200160002060006101000a81549073ffffffffffffffffffffffffffffffffffffffff02191690556001600360008573ffffffffffffffffffffffffffffffffffffffff1673ffffffffffffffffffffffffffffffffffffffff168152602001908152602001600020600082825403925050819055506001600360008473ffffffffffffffffffffffffffffffffffffffff1673ffffffffffffffffffffffffffffffffffffffff16815260200190815260200160002060008282540192505081905550816002600083815260200190815260200160002060006101000a81548173ffffffffffffffffffffffffffffffffffffffff021916908373ffffffffffffffffffffffffffffffffffffffff160217905550808273ffffffffffffffffffffffffffffffffffffffff168473ffffffffffffffffffffffffffffffffffffffff167fddf252ad1be2c89b69c2b068fc378daa952ba7f163c4a11628f55a4df523b3ef60405160405180910390a46120348383836001612a02565b505050565b600081600001549050919050565b60006002600083815260200190815260200160002060009054906101000a900473ffffffffffffffffffffffffffffffffffffffff169050919050565b61208c611bea565b73ffffffffffffffffffffffffffffffffffffffff166120aa610fa5565b73ffffffffffffffffffffffffffffffffffffffff1614612100576040517f08c379a00000000000000000000000000000000000000000000000000000000081526004016120f790613f6e565b60405180910390fd5b565b6000600760009054906101000a900473ffffffffffffffffffffffffffffffffffffffff16905081600760006101000a81548173ffffffffffffffffffffffffffffffffffffffff021916908373ffffffffffffffffffffffffffffffffffffffff1602179055508173ffffffffffffffffffffffffffffffffffffffff168173ffffffffffffffffffffffffffffffffffffffff167f8be0079c531659141344cd1fd0a4f28419497f9722a3daafe3b4186f6b6457e060405160405180910390a35050565b6001816000016000828254019250508190555050565b600073ffffffffffffffffffffffffffffffffffffffff168273ffffffffffffffffffffffffffffffffffffffff160361224d576040517f08c379a000000000000000000000000000000000000000000000000000000000815260040161224490613fda565b60405180910390fd5b612256816129bb565b15612296576040517f08c379a000000000000000000000000000000000000000000000000000000000815260040161228d90614046565b60405180910390fd5b6122a46000838360016129fc565b6122ad816129bb565b156122ed576040517f08c379a00000000000000000000000000000000000000000000000000000000081526004016122e490614046565b60405180910390fd5b6001600360008473ffffffffffffffffffffffffffffffffffffffff1673ffffffffffffffffffffffffffffffffffffffff16815260200190815260200160002060008282540192505081905550816002600083815260200190815260200160002060006101000a81548173ffffffffffffffffffffffffffffffffffffffff021916908373ffffffffffffffffffffffffffffffffffffffff160217905550808273ffffffffffffffffffffffffffffffffffffffff16600073ffffffffffffffffffffffffffffffffffffffff167fddf252ad1be2c89b69c2b068fc378daa952ba7f163c4a11628f55a4df523b3ef60405160405180910390a46123f7600083836001612a02565b5050565b612404826129bb565b612443576040517f08c379a000000000000000000000000000000000000000000000000000000000815260040161243a906140d8565b60405180910390fd5b8060066000848152602001908152602001600020908161246391906142a4565b507ff8e1a15aba9398e019f0b49df1a4fde98ee17ae345cb5f6b5e2c27f5033e8ce78260405161249391906130eb565b60405180910390a15050565b600081116124e2576040517f08c379a00000000000000000000000000000000000000000000000000000000081526004016124d9906143c2565b60405180910390fd5b6040518060a001604052808381526020013373ffffffffffffffffffffffffffffffffffffffff1681526020013073ffffffffffffffffffffffffffffffffffffffff16815260200182815260200160001515815250600b60008481526020019081526020016000206000820151816000015560208201518160010160006101000a81548173ffffffffffffffffffffffffffffffffffffffff021916908373ffffffffffffffffffffffffffffffffffffffff16021790555060408201518160020160006101000a81548173ffffffffffffffffffffffffffffffffffffffff021916908373ffffffffffffffffffffffffffffffffffffffff1602179055506060820151816003015560808201518160040160006101000a81548160ff021916908315150217905550905050612618610fa5565b73ffffffffffffffffffffffffffffffffffffffff166108fc600a549081150290604051600060405180830381858888f1935050505015801561265f573d6000803e3d6000fd5b5061266b333084611d40565b817fb640004f1d14576d0c209e240cad0410e0d8c0c33a09375861fbadae2588a98d33308460006040516126a294939291906143e2565b60405180910390a25050565b600081600001549050600081116126fa576040517f08c379a00000000000000000000000000000000000000000000000000000000081526004016126f190614473565b60405180910390fd5b6001810382600001819055505050565b8173ffffffffffffffffffffffffffffffffffffffff168373ffffffffffffffffffffffffffffffffffffffff1603612778576040517f08c379a000000000000000000000000000000000000000000000000000000000815260040161276f906144df565b60405180910390fd5b80600560008573ffffffffffffffffffffffffffffffffffffffff1673ffffffffffffffffffffffffffffffffffffffff16815260200190815260200160002060008473ffffffffffffffffffffffffffffffffffffffff1673ffffffffffffffffffffffffffffffffffffffff16815260200190815260200160002060006101000a81548160ff0219169083151502179055508173ffffffffffffffffffffffffffffffffffffffff168373ffffffffffffffffffffffffffffffffffffffff167f17307eab39ab6107e8899845ad3d59bd9653f200f220920489ca2b5937696c31836040516128699190612ee4565b60405180910390a3505050565b612881848484611d40565b61288d84848484612a08565b6128cc576040517f08c379a00000000000000000000000000000000000000000000000000000000081526004016128c390614571565b60405180910390fd5b50505050565b606060405180602001604052806000815250905090565b60606128f482611b9f565b60006128fe6128d2565b9050600081511161291e5760405180602001604052806000815250612949565b8061292884612b8f565b604051602001612939929190613d48565b6040516020818303038152906040525b915050919050565b60007f01ffc9a7000000000000000000000000000000000000000000000000000000007bffffffffffffffffffffffffffffffffffffffffffffffffffffffff1916827bffffffffffffffffffffffffffffffffffffffffffffffffffffffff1916149050919050565b60008073ffffffffffffffffffffffffffffffffffffffff166129dd83612047565b73ffffffffffffffffffffffffffffffffffffffff1614159050919050565b50505050565b50505050565b6000612a298473ffffffffffffffffffffffffffffffffffffffff16612c5d565b15612b82578373ffffffffffffffffffffffffffffffffffffffff1663150b7a02612a52611bea565b8786866040518563ffffffff1660e01b8152600401612a7494939291906145e6565b6020604051808303816000875af1925050508015612ab057506040513d601f19601f82011682018060405250810190612aad9190614647565b60015b612b32573d8060008114612ae0576040519150601f19603f3d011682016040523d82523d6000602084013e612ae5565b606091505b506000815103612b2a576040517f08c379a0000000000000000000000000000000000000000000000000000000008152600401612b2190614571565b60405180910390fd5b805181602001fd5b63150b7a0260e01b7bffffffffffffffffffffffffffffffffffffffffffffffffffffffff1916817bffffffffffffffffffffffffffffffffffffffffffffffffffffffff191614915050612b87565b600190505b949350505050565b606060006001612b9e84612c80565b01905060008167ffffffffffffffff811115612bbd57612bbc613308565b5b6040519080825280601f01601f191660200182016040528015612bef5781602001600182028036833780820191505090505b509050600082602001820190505b600115612c52578080600190039150507f3031323334353637383961626364656600000000000000000000000000000000600a86061a8153600a8581612c4657612c45614674565b5b04945060008503612bfd575b819350505050919050565b6000808273ffffffffffffffffffffffffffffffffffffffff163b119050919050565b600080600090507a184f03e93ff9f4daa797ed6e38ed64bf6a1f0100000000000000008310612cde577a184f03e93ff9f4daa797ed6e38ed64bf6a1f0100000000000000008381612cd457612cd3614674565b5b0492506040810190505b6d04ee2d6d415b85acef81000000008310612d1b576d04ee2d6d415b85acef81000000008381612d1157612d10614674565b5b0492506020810190505b662386f26fc100008310612d4a57662386f26fc100008381612d4057612d3f614674565b5b0492506010810190505b6305f5e1008310612d73576305f5e1008381612d6957612d68614674565b5b0492506008810190505b6127108310612d98576127108381612d8e57612d8d614674565b5b0492506004810190505b60648310612dbb5760648381612db157612db0614674565b5b0492506002810190505b600a8310612dca576001810190505b80915050919050565b6040518060a0016040528060008152602001600073ffffffffffffffffffffffffffffffffffffffff168152602001600073ffffffffffffffffffffffffffffffffffffffff168152602001600081526020016000151581525090565b6000604051905090565b600080fd5b600080fd5b60007fffffffff0000000000000000000000000000000000000000000000000000000082169050919050565b612e7981612e44565b8114612e8457600080fd5b50565b600081359050612e9681612e70565b92915050565b600060208284031215612eb257612eb1612e3a565b5b6000612ec084828501612e87565b91505092915050565b60008115159050919050565b612ede81612ec9565b82525050565b6000602082019050612ef96000830184612ed5565b92915050565b600081519050919050565b600082825260208201905092915050565b60005b83811015612f39578082015181840152602081019050612f1e565b60008484015250505050565b6000601f19601f8301169050919050565b6000612f6182612eff565b612f6b8185612f0a565b9350612f7b818560208601612f1b565b612f8481612f45565b840191505092915050565b60006020820190508181036000830152612fa98184612f56565b905092915050565b6000819050919050565b612fc481612fb1565b8114612fcf57600080fd5b50565b600081359050612fe181612fbb565b92915050565b600060208284031215612ffd57612ffc612e3a565b5b600061300b84828501612fd2565b91505092915050565b600073ffffffffffffffffffffffffffffffffffffffff82169050919050565b600061303f82613014565b9050919050565b61304f81613034565b82525050565b600060208201905061306a6000830184613046565b92915050565b61307981613034565b811461308457600080fd5b50565b60008135905061309681613070565b92915050565b600080604083850312156130b3576130b2612e3a565b5b60006130c185828601613087565b92505060206130d285828601612fd2565b9150509250929050565b6130e581612fb1565b82525050565b600060208201905061310060008301846130dc565b92915050565b60008060006060848603121561311f5761311e612e3a565b5b600061312d86828701613087565b935050602061313e86828701613087565b925050604061314f86828701612fd2565b9150509250925092565b600081519050919050565b600082825260208201905092915050565b6000819050602082019050919050565b61318e81612fb1565b82525050565b600061319f82613014565b9050919050565b6131af81613194565b82525050565b6131be81612ec9565b82525050565b60a0820160008201516131da6000850182613185565b5060208201516131ed60208501826131a6565b50604082015161320060408501826131a6565b5060608201516132136060850182613185565b50608082015161322660808501826131b5565b50505050565b600061323883836131c4565b60a08301905092915050565b6000602082019050919050565b600061325c82613159565b6132668185613164565b935061327183613175565b8060005b838110156132a2578151613289888261322c565b975061329483613244565b925050600181019050613275565b5085935050505092915050565b600060208201905081810360008301526132c98184613251565b905092915050565b6000602082840312156132e7576132e6612e3a565b5b60006132f584828501613087565b91505092915050565b600080fd5b600080fd5b7f4e487b7100000000000000000000000000000000000000000000000000000000600052604160045260246000fd5b61334082612f45565b810181811067ffffffffffffffff8211171561335f5761335e613308565b5b80604052505050565b6000613372612e30565b905061337e8282613337565b919050565b600067ffffffffffffffff82111561339e5761339d613308565b5b6133a782612f45565b9050602081019050919050565b82818337600083830152505050565b60006133d66133d184613383565b613368565b9050828152602081018484840111156133f2576133f1613303565b5b6133fd8482856133b4565b509392505050565b600082601f83011261341a576134196132fe565b5b813561342a8482602086016133c3565b91505092915050565b6000806040838503121561344a57613449612e3a565b5b600083013567ffffffffffffffff81111561346857613467612e3f565b5b61347485828601613405565b925050602061348585828601612fd2565b9150509250929050565b600080604083850312156134a6576134a5612e3a565b5b60006134b485828601612fd2565b92505060206134c585828601612fd2565b9150509250929050565b6134d881612ec9565b81146134e357600080fd5b50565b6000813590506134f5816134cf565b92915050565b6000806040838503121561351257613511612e3a565b5b600061352085828601613087565b9250506020613531858286016134e6565b9150509250929050565b600067ffffffffffffffff82111561355657613555613308565b5b61355f82612f45565b9050602081019050919050565b600061357f61357a8461353b565b613368565b90508281526020810184848401111561359b5761359a613303565b5b6135a68482856133b4565b509392505050565b600082601f8301126135c3576135c26132fe565b5b81356135d384826020860161356c565b91505092915050565b600080600080608085870312156135f6576135f5612e3a565b5b600061360487828801613087565b945050602061361587828801613087565b935050604061362687828801612fd2565b925050606085013567ffffffffffffffff81111561364757613646612e3f565b5b613653878288016135ae565b91505092959194509250565b6000806040838503121561367657613675612e3a565b5b600061368485828601613087565b925050602061369585828601613087565b9150509250929050565b7f4e487b7100000000000000000000000000000000000000000000000000000000600052602260045260246000fd5b600060028204905060018216806136e657607f821691505b6020821081036136f9576136f861369f565b5b50919050565b7f4552433732313a20617070726f76616c20746f2063757272656e74206f776e6560008201527f7200000000000000000000000000000000000000000000000000000000000000602082015250565b600061375b602183612f0a565b9150613766826136ff565b604082019050919050565b6000602082019050818103600083015261378a8161374e565b9050919050565b7f4552433732313a20617070726f76652063616c6c6572206973206e6f7420746f60008201527f6b656e206f776e6572206f7220617070726f76656420666f7220616c6c000000602082015250565b60006137ed603d83612f0a565b91506137f882613791565b604082019050919050565b6000602082019050818103600083015261381c816137e0565b9050919050565b7f4552433732313a2063616c6c6572206973206e6f7420746f6b656e206f776e6560008201527f72206f7220617070726f76656400000000000000000000000000000000000000602082015250565b600061387f602d83612f0a565b915061388a82613823565b604082019050919050565b600060208201905081810360008301526138ae81613872565b9050919050565b7f4e487b7100000000000000000000000000000000000000000000000000000000600052601160045260246000fd5b60006138ef82612fb1565b91506138fa83612fb1565b9250828201905080821115613912576139116138b5565b5b92915050565b600061392382612fb1565b91507fffffffffffffffffffffffffffffffffffffffffffffffffffffffffffffffff8203613955576139546138b5565b5b600182019050919050565b7f4e487b7100000000000000000000000000000000000000000000000000000000600052603260045260246000fd5b7f4552433732313a20696e76616c696420746f6b656e2049440000000000000000600082015250565b60006139c5601883612f0a565b91506139d08261398f565b602082019050919050565b600060208201905081810360008301526139f4816139b8565b9050919050565b7f4552433732313a2061646472657373207a65726f206973206e6f74206120766160008201527f6c6964206f776e65720000000000000000000000000000000000000000000000602082015250565b6000613a57602983612f0a565b9150613a62826139fb565b604082019050919050565b60006020820190508181036000830152613a8681613a4a565b9050919050565b7f5072696365206d75737420626520657175616c20746f206c697374696e67207060008201527f7269636500000000000000000000000000000000000000000000000000000000602082015250565b6000613ae9602483612f0a565b9150613af482613a8d565b604082019050919050565b60006020820190508181036000830152613b1881613adc565b9050919050565b7f4f6e6c79206974656d206f776e65722063616e20706572666f726d207468697360008201527f206f7065726174696f6e00000000000000000000000000000000000000000000602082015250565b6000613b7b602a83612f0a565b9150613b8682613b1f565b604082019050919050565b60006020820190508181036000830152613baa81613b6e565b9050919050565b6000604082019050613bc66000830185613046565b613bd360208301846130dc565b9392505050565b6000613be582612fb1565b9150613bf083612fb1565b9250828203905081811115613c0857613c076138b5565b5b92915050565b7f506c65617365207375626d6974207468652061736b696e67207072696365207460008201527f6f20636f6d706c65746520746865207075726368617365000000000000000000602082015250565b6000613c6a603783612f0a565b9150613c7582613c0e565b604082019050919050565b60006020820190508181036000830152613c9981613c5d565b9050919050565b7f4974656d206973206e6f7420666f722073616c65000000000000000000000000600082015250565b6000613cd6601483612f0a565b9150613ce182613ca0565b602082019050919050565b60006020820190508181036000830152613d0581613cc9565b9050919050565b600081905092915050565b6000613d2282612eff565b613d2c8185613d0c565b9350613d3c818560208601612f1b565b80840191505092915050565b6000613d548285613d17565b9150613d608284613d17565b91508190509392505050565b7f4f776e61626c653a206e6577206f776e657220697320746865207a65726f206160008201527f6464726573730000000000000000000000000000000000000000000000000000602082015250565b6000613dc8602683612f0a565b9150613dd382613d6c565b604082019050919050565b60006020820190508181036000830152613df781613dbb565b9050919050565b7f4552433732313a207472616e736665722066726f6d20696e636f72726563742060008201527f6f776e6572000000000000000000000000000000000000000000000000000000602082015250565b6000613e5a602583612f0a565b9150613e6582613dfe565b604082019050919050565b60006020820190508181036000830152613e8981613e4d565b9050919050565b7f4552433732313a207472616e7366657220746f20746865207a65726f2061646460008201527f7265737300000000000000000000000000000000000000000000000000000000602082015250565b6000613eec602483612f0a565b9150613ef782613e90565b604082019050919050565b60006020820190508181036000830152613f1b81613edf565b9050919050565b7f4f776e61626c653a2063616c6c6572206973206e6f7420746865206f776e6572600082015250565b6000613f58602083612f0a565b9150613f6382613f22565b602082019050919050565b60006020820190508181036000830152613f8781613f4b565b9050919050565b7f4552433732313a206d696e7420746f20746865207a65726f2061646472657373600082015250565b6000613fc4602083612f0a565b9150613fcf82613f8e565b602082019050919050565b60006020820190508181036000830152613ff381613fb7565b9050919050565b7f4552433732313a20746f6b656e20616c7265616479206d696e74656400000000600082015250565b6000614030601c83612f0a565b915061403b82613ffa565b602082019050919050565b6000602082019050818103600083015261405f81614023565b9050919050565b7f45524337323155524953746f726167653a2055524920736574206f66206e6f6e60008201527f6578697374656e7420746f6b656e000000000000000000000000000000000000602082015250565b60006140c2602e83612f0a565b91506140cd82614066565b604082019050919050565b600060208201905081810360008301526140f1816140b5565b9050919050565b60008190508160005260206000209050919050565b60006020601f8301049050919050565b600082821b905092915050565b60006008830261415a7fffffffffffffffffffffffffffffffffffffffffffffffffffffffffffffffff8261411d565b614164868361411d565b95508019841693508086168417925050509392505050565b6000819050919050565b60006141a161419c61419784612fb1565b61417c565b612fb1565b9050919050565b6000819050919050565b6141bb83614186565b6141cf6141c7826141a8565b84845461412a565b825550505050565b600090565b6141e46141d7565b6141ef8184846141b2565b505050565b5b81811015614213576142086000826141dc565b6001810190506141f5565b5050565b601f82111561425857614229816140f8565b6142328461410d565b81016020851015614241578190505b61425561424d8561410d565b8301826141f4565b50505b505050565b600082821c905092915050565b600061427b6000198460080261425d565b1980831691505092915050565b6000614294838361426a565b9150826002028217905092915050565b6142ad82612eff565b67ffffffffffffffff8111156142c6576142c5613308565b5b6142d082546136ce565b6142db828285614217565b600060209050601f83116001811461430e57600084156142fc578287015190505b6143068582614288565b86555061436e565b601f19841661431c866140f8565b60005b828110156143445784890151825560018201915060208501945060208101905061431f565b86831015614361578489015161435d601f89168261426a565b8355505b6001600288020188555050505b505050505050565b7f5072696365206d757374206265206174206c6561737420310000000000000000600082015250565b60006143ac601883612f0a565b91506143b782614376565b602082019050919050565b600060208201905081810360008301526143db8161439f565b9050919050565b60006080820190506143f76000830187613046565b6144046020830186613046565b61441160408301856130dc565b61441e6060830184612ed5565b95945050505050565b7f436f756e7465723a2064656372656d656e74206f766572666c6f770000000000600082015250565b600061445d601b83612f0a565b915061446882614427565b602082019050919050565b6000602082019050818103600083015261448c81614450565b9050919050565b7f4552433732313a20617070726f766520746f2063616c6c657200000000000000600082015250565b60006144c9601983612f0a565b91506144d482614493565b602082019050919050565b600060208201905081810360008301526144f8816144bc565b9050919050565b7f4552433732313a207472616e7366657220746f206e6f6e20455243373231526560008201527f63656976657220696d706c656d656e7465720000000000000000000000000000602082015250565b600061455b603283612f0a565b9150614566826144ff565b604082019050919050565b6000602082019050818103600083015261458a8161454e565b9050919050565b600081519050919050565b600082825260208201905092915050565b60006145b882614591565b6145c2818561459c565b93506145d2818560208601612f1b565b6145db81612f45565b840191505092915050565b60006080820190506145fb6000830187613046565b6146086020830186613046565b61461560408301856130dc565b818103606083015261462781846145ad565b905095945050505050565b60008151905061464181612e70565b92915050565b60006020828403121561465d5761465c612e3a565b5b600061466b84828501614632565b91505092915050565b7f4e487b7100000000000000000000000000000000000000000000000000000000600052601260045260246000fdfea2646970667358221220bb14e0f7a2708d098f03c8d1d52a1c9355f1807cb05d72fd4a1273db8b86e56564736f6c63430008140033",
  "linkReferences": {},
  "deployedLinkReferences": {}
}